:020000040000FA
:0400000007EF00F016
:100008005E82ECED14F088EF14F0000E016E010E24
:10001800C6EC15F0575007E1090E565CD8B017EF3B
:1000280000F019EF00F01DEF00F056C050F057C077
:1000380051F0000E386E000E376E3750D10FD96E62
:10004800DA6ADF50206ED00E2024216E226AFF0E5D
:1000580022223750020DF350230FD96EDA6A21C0DD
:10006800DEFF22C0DDFF374A382A38BE45EF00F0F0
:10007800385009E1080E375CD8A045EF00F047EF8B
:1000880000F021EF00F0000E3D6E000E3C6E0A0EEF
:100098002302F3CF20F0F4CF21F02402F3502126DD
:1000A80025502024406E26502120416E0A0E290238
:1000B800F3CF20F0F4CF21F02A02F35021262B5061
:1000C8002024426E2C502120436E0A0E2F02F3CFBB
:1000D80020F0F4CF21F03002F350212631502024B3
:1000E800446E32502120456E000E3F6E000E3E6E6B
:1000F800000E366E000E356E000E3A6E000E396E2A
:10010800010E18EC14F03B6E3B5020EC10F0320E50
:10011800036E2F0E046E800E056E52EC14F0000E66
:1001280018EC14F03B6E0C0E3B18D8A49EEF00F0B0
:10013800A0EF00F0B3EF00F0354A362A2D0E355CFB
:10014800010E3658D8A0ABEF00F0ADEF00F0E1EFAC
:1001580000F0000E556E020E546E1AEF05F02C0ECC
:10016800355C010E3658D8B0BCEF00F0BEEF00F099
:10017800E1EF00F035503610D8B4C5EF00F0C7EF06
:1001880000F0E1EF00F0000E366E000E356E020E44
:1001980039183A10D8A4D3EF00F0D5EF00F0DBEF10
:1001A80000F0000E3A6E000E396EDDEF00F0394AAD
:1001B8003A2A000E3D6E000E3C6E39503A10D8A413
:1001C800E8EF00F0EAEF00F041EF02F00B0E3B1809
:1001D800D8A4F1EF00F0F3EF00F090EF01F03E4A01
:1001E8003F2A2D0E3E5C010E3F58D8A0FEEF00F0CE
:1001F80000EF01F0B9EF01F040C001F041C002F09A
:10020800000E046E0A0E036EDEEC13F001C020F03F
:1002180002C021F0203A213AF00E211620500F0B8F
:100228002112F00E201640C008F041C009F0000E5F
:100238000B6E0A0E0A6EBAEC14F008502010406ECD
:1002480009502110416E42C001F043C002F0000E77
:10025800046E0A0E036EDEEC13F001C020F002C03B
:1002680021F0203A213AF00E211620500F0B2112CE
:10027800F00E201642C008F043C009F0000E0B6EC5
:100288000A0E0A6EBAEC14F008502010426E09509B
:100298002110436E44C001F045C002F0000E046E08
:1002A8000A0E036EDEEC13F001C020F002C021F04C
:1002B800203A213AF00E211620500F0B2112F00E91
:1002C800201644C008F045C009F0000E0B6E0A0E57
:1002D8000A6EBAEC14F008502010446E0950211030
:1002E800456E40C002F0020E21EC16F042C002F04A
:1002F800010E21EC16F044C002F0000E21EC16F0BD
:10030800000E556E020E546E000E576E0C0E566E91
:100318006EEC0FF01AEF05F02C0E3E5C010E3F5804
:10032800D8B099EF01F09BEF01F0B9EF01F03E5022
:100338003F10D8B4A2EF01F0A4EF01F0B9EF01F03B
:10034800444A452A000E3F6E000E3E6E455009E1B4
:100358003C0E445CD8A0B3EF01F0B5EF01F0B9EF63
:1003680001F0000E456E000E446E3C4A3D2A650EB3
:100378003C183D10D8A4C3EF01F0C5EF01F0E7EF3A
:1003880001F0CC0E0D6E44C001F045C002F0000E25
:10039800046E0A0E036EDEEC13F00150300F4AECC7
:1003A80016F0CD0E0D6E44C008F045C009F0000EE1
:1003B8000B6E0A0E0A6EBAEC14F00850300F4AECB5
:1003C80016F0FFEF01F0C80E3C183D10D8A4EFEF6F
:1003D80001F0F1EF01F0FFEF01F0000E3D6E000EAD
:1003E8003C6ECC0E0D6E200E4AEC16F0CD0E0D6E46
:1003F800200E4AEC16F0C20E0D6E40C001F041C04E
:1004080002F0000E046E0A0E036EDEEC13F00150CB
:10041800300F4AEC16F0C30E0D6E40C008F041C014
:1004280009F0000E0B6E0A0E0A6EBAEC14F00850B2
:10043800300F4AEC16F0C70E0D6E42C001F043C0F3
:1004480002F0000E046E0A0E036EDEEC13F001508B
:10045800300F4AEC16F0C80E0D6E42C008F043C0CB
:1004680009F0000E0B6E0A0E0A6EBAEC14F0085072
:10047800300F4AEC16F0F8EF04F039043A10D8A41B
:1004880048EF02F04AEF02F097EF03F00B0E3B182B
:10049800D8A451EF02F053EF02F0E6EF02F03E4A23
:1004A8003F2A2D0E3E5C010E3F58D8A05EEF02F0A9
:1004B80060EF02F00FEF03F040C001F041C002F01E
:1004C800000E046E0A0E036EDEEC13F001C020F07D
:1004D80002C021F0203A213AF00E211620500F0BCD
:1004E8002112F00E201640C008F041C009F0000E9D
:1004F8000B6E0A0E0A6EBAEC14F008502010406E0B
:1005080009502110416E42C001F043C002F0000EB4
:10051800046E0A0E036EDEEC13F001C020F002C078
:1005280021F0203A213AF00E211620500F0B21120B
:10053800F00E201642C008F043C009F0000E0B6E02
:100548000A0E0A6EBAEC14F008502010426E0950D8
:100558002110436E44C001F045C002F0000E046E45
:100568000A0E036EDEEC13F001C020F002C021F089
:10057800203A213AF00E211620500F0B2112F00ECE
:10058800201644C008F045C009F0000E0B6E0A0E94
:100598000A6EBAEC14F008502010446E095021106D
:1005A800456E40C002F0020E21EC16F042C002F087
:1005B800010E21EC16F044C002F0000E21EC16F0FA
:1005C80084EF01F02C0E3E5C010E3F58D8B0EFEFDF
:1005D80002F0F1EF02F00FEF03F03E503F10D8B4F5
:1005E800F8EF02F0FAEF02F00FEF03F0424A432A65
:1005F800000E3F6E000E3E6E435009E13C0E425C19
:10060800D8A009EF03F00BEF03F00FEF03F0000E93
:10061800436E000E426E3C4A3D2A650E3C183D1062
:10062800D8A419EF03F01BEF03F03DEF03F0C70E5A
:100638000D6E42C001F043C002F0000E046E0A0EB7
:10064800036EDEEC13F00150300F4AEC16F0C80EC2
:100658000D6E42C008F043C009F0000E0B6E0A0E82
:100668000A6EBAEC14F00850300F4AEC16F055EF49
:1006780003F0C80E3C183D10D8A445EF03F047EF2F
:1006880003F055EF03F0000E3D6E000E3C6EC70EF2
:100698000D6E200E4AEC16F0C80E0D6E200E4AECB8
:1006A80016F0C20E0D6E40C001F041C002F0000EFF
:1006B800046E0A0E036EDEEC13F00150300F4AECA4
:1006C80016F0C30E0D6E40C008F041C009F0000ED0
:1006D8000B6E0A0E0A6EBAEC14F00850300F4AEC92
:1006E80016F0CC0E0D6E44C001F045C002F0000EAD
:1006F800046E0A0E036EDEEC13F00150300F4AEC64
:1007080016F0CD0E0D6E44C008F045C009F0000E7D
:100718000B6E0A0E0A6EBAEC14F00850300F4AEC51
:1007280016F0F8EF04F0020E39183A10D8A49FEF2B
:1007380003F0A1EF03F0F8EF04F00B0E3B18D8A478
:10074800A8EF03F0AAEF03F047EF04F03E4A3F2A70
:100758002D0E3E5C010E3F58D8A0B5EF03F0B7EF61
:1007680003F070EF04F040C001F041C002F0000E49
:10077800046E0A0E036EDEEC13F001C020F002C016
:1007880021F0203A213AF00E211620500F0B2112A9
:10079800F00E201640C008F041C009F0000E0B6EA4
:1007A8000A0E0A6EBAEC14F008502010406E095078
:1007B8002110416E42C001F043C002F0000E046EE9
:1007C8000A0E036EDEEC13F001C020F002C021F027
:1007D800203A213AF00E211620500F0B2112F00E6C
:1007E800201642C008F043C009F0000E0B6E0A0E36
:1007F8000A6EBAEC14F008502010426E095021100D
:10080800436E44C001F045C002F0000E046E0A0EAB
:10081800036EDEEC13F001C020F002C021F0203A94
:10082800213AF00E211620500F0B2112F00E20163F
:1008380044C008F045C009F0000E0B6E0A0E0A6E9F
:10084800BAEC14F008502010446E09502110456E7F
:1008580040C002F0020E21EC16F042C002F0010E78
:1008680021EC16F044C002F0000E21EC16F0000E48
:10087800556E020E546E000E576E0C0E566E6EECD0
:100888000FF01AEF05F02C0E3E5C010E3F58D8B061
:1008980050EF04F052EF04F070EF04F03E503F10B8
:1008A800D8B459EF04F05BEF04F070EF04F0404A5D
:1008B800412A000E3F6E000E3E6E415009E1180EAF
:1008C800405CD8A06AEF04F06CEF04F070EF04F01D
:1008D800000E416E000E406EC70E0D6E42C001F054
:1008E80043C002F0000E046E0A0E036EDEEC13F035
:1008F8000150300F4AEC16F0C80E0D6E42C008F0D9
:1009080043C009F0000E0B6E0A0E0A6EBAEC14F022
:100918000850300F4AEC16F0CC0E0D6E44C001F0B2
:1009280045C002F0000E046E0A0E036EDEEC13F0F2
:100938000150300F4AEC16F0CD0E0D6E44C008F091
:1009480045C009F0000E0B6E0A0E0A6EBAEC14F0E0
:100958000850300F4AEC16F03C4A3D2A650E3C1808
:100968003D10D8A4BAEF04F0BCEF04F0DEEF04F0B9
:10097800C20E0D6E40C001F041C002F0000E046EC0
:100988000A0E036EDEEC13F00150300F4AEC16F03D
:10099800C30E0D6E40C008F041C009F0000E0B6E8A
:1009A8000A0E0A6EBAEC14F00850300F4AEC16F032
:1009B800F8EF04F0C80E3C183D10D8A4E6EF04F098
:1009C800E8EF04F0F8EF04F0000E3D6E000E3C6E08
:1009D800C20E0D6E200E4AEC16F0C30E0D6E200EE0
:1009E8004AEC16F0F8EF04F0950E036E2F0E046E25
:1009F800C00E056E52EC14F0FA0E036E2F0E046E44
:100A0800C40E056E52EC14F0FA0E036E2F0E046E2F
:100A1800C90E056E52EC14F0950E036E2F0E046E7F
:100A2800CE0E056E52EC14F084EF00F01200466E04
:100A3800000E4C6E000E4B6E000E4A6E000E496E94
:100A4800000E3F6E000E3E6E000E016E010EC6ECEB
:100A580015F0575007E1090E565CD8B036EF05F08F
:100A680038EF05F03CEF05F056C050F057C051F094
:100A7800650E036E2F0E046E800E056E52EC14F098
:100A8800465020EC10F04C5007E1040E4B5CD8B0F7
:100A980050EF05F052EF05F008EF06F0010E18ECE4
:100AA80014F0466E3E4A3F2A890E3E1807E1130E9F
:100AB8003F18D8A462EF05F064EF05F06CEF05F07D
:100AC8004B50C00F0D6E7C0E4AEC16F082EF05F00D
:100AD800100E3E1807E1270E3F18D8A476EF05F050
:100AE80078EF05F082EF05F0000E3F6E000E3E6EC7
:100AF8004B50C00F0D6E200E4AEC16F00B0E461828
:100B0800D8A489EF05F08BEF05F0C6EF05F049048E
:100B18004A10D8A492EF05F094EF05F0A0EF05F085
:100B28004BC020F0040E20262050230FD96EDA6A1D
:100B3800300EDF6EBCEF05F0020E49184A10D8A43B
:100B4800A8EF05F0AAEF05F0B6EF05F04BC020F0CE
:100B5800080E20262050230FD96EDA6A300EDF6E79
:100B6800BCEF05F04B50230FD96EDA6A300EDF6EFA
:100B78004B50C00F0D6E2A0E4AEC16F04B4A4C2A09
:100B880044EF05F00C0E4618D8A4CDEF05F0CFEFD2
:100B980005F09AEF07F049044A10D8A4D6EF05F0FB
:100BA800D8EF05F0E4EF05F04BC020F0040E202646
:100BB8002050230FD96EDA6A310EDF6E00EF06F08F
:100BC800020E49184A10D8A4ECEF05F0EEEF05F034
:100BD800FAEF05F04BC020F0080E20262050230F16
:100BE800D96EDA6A310EDF6E00EF06F04B50230F34
:100BF800D96EDA6A310EDF6E4B50C00F0D6E2A0EB9
:100C08004AEC16F0C2EF05F049504A10D8A40FEF8D
:100C180006F011EF06F0B6EF06F0000E416E000E7A
:100C2800406E404A412A500E405CC30E4158D8A03D
:100C380020EF06F022EF06F015EF06F0000E316EF9
:100C4800000E306EC80E39EC15F02318D8A42FEF1B
:100C580006F031EF06F052EF06F0C90E39EC15F048
:100C68002418D8A43AEF06F03CEF06F052EF06F04D
:100C7800CA0E39EC15F02518D8A445EF06F047EF51
:100C880006F052EF06F0CB0E39EC15F02618D8B462
:100C980050EF06F052EF06F056EF06F0000E316EF8
:100CA800010E306E30043110D8A45DEF06F05FEF0E
:100CB80006F09FEF06F0000E556E020E546E000E01
:100CC800016E010EC6EC15F0000E436E000E426E6A
:100CD8004206D8A04306B80E425C0B0E4358D8A073
:100CE80078EF06F07AEF06F06CEF06F0D50E036E9B
:100CF8002E0E046E800E056E52EC14F0000E326E4D
:100D0800000E336E000E346E000E356E010E322664
:100D1800000E33223422352235500BE1710E335C3C
:100D2800020E3458D8A09BEF06F09DEF06F08AEF2C
:100D380006F09CEF07F0000E4C6E000E4B6E000E96
:100D48004A6E010E496E000E016E010EC6EC15F0DA
:100D5800430E036E2F0E046E800E056E52EC14F0D7
:100D680044EF05F0020E49184A10D8A4BEEF06F069
:100D7800C0EF06F083EF07F0000E486E040E476ED2
:100D880047C020F0040E20262050230FD96EDA6ABF
:100D98004750230FE16EE26ADE50E618D8B4D7EF69
:100DA80006F0D9EF06F019EF07F0000E556E020EA7
:100DB800546E000E016E010EC6EC15F0000E456E65
:100DC800000E446E4406D8A04506B80E445C0B0ECF
:100DD8004558D8A0F2EF06F0F4EF06F0E6EF06F07B
:100DE800D50E036E2E0E046E800E056E52EC14F0B6
:100DF800000E366E000E376E000E386E000E396E1D
:100E0800010E3626000E37223822392239500BE1DE
:100E1800710E375C020E3858D8A015EF07F017EF9F
:100E280007F004EF07F09CEF07F0474A482A48BE4E
:100E380027EF07F0485009E1080E475CD8A027EFD4
:100E480007F029EF07F0C4EF06F027C006F0C80E38
:100E5800A6EC15F028C006F0C90EA6EC15F029C0BE
:100E680006F0CA0EA6EC15F02AC006F0CB0EA6ECCA
:100E780015F0760E036E2F0E046E800E056E52EC82
:100E880014F00E0E036E2F0E046EC00E056E52EC9B
:100E980014F0000E3A6E000E3B6E000E3C6E000E13
:100EA8003D6E3D500BE1710E3B5C020E3C58D8A0E4
:100EB80060EF07F062EF07F064EF07F077EF07F0F5
:100EC800010E3A26000E3B223C223D223D500BE10A
:100ED800710E3B5C020E3C58D8A075EF07F077EF17
:100EE80007F064EF07F0000E556E020E546E000E08
:100EF800576E0D0E566E6EEC0FF09CEF07F0000E5D
:100F08004A6E020E496E000E4C6E000E4B6E000EBD
:100F1800016E010EC6EC15F0540E036E2F0E046E12
:100F2800800E056E52EC14F044EF05F044EF05F026
:100F38001200336E000E376E000E366E000E356EE0
:100F4800020E346E000E286E000E276E000E2A6EFA
:100F5800000E296E000E326E000E316E200E036EEA
:100F68002F0E046E800E056E52EC14F0870E036E81
:100F78002F0E046EC00E056E52EC14F0335020ECA8
:100F880010F0375007E1040E365CD8B0CEEF07F00A
:100F9800D0EF07F052EF08F0010E18EC14F0336EA2
:100FA800314A322A0B0E31183210D8A4DEEF07F07E
:100FB800E0EF07F0E8EF07F03650C00F0D6E7C0E3B
:100FC8004AEC16F0FCEF07F0320E31183210D8A4B4
:100FD800F0EF07F0F2EF07F0FCEF07F0000E326ECB
:100FE800000E316E3650C00F0D6E200E4AEC16F012
:100FF80029502A10D8A403EF08F005EF08F00EEFE7
:1010080008F0000E2A6E010E296ED58E000E5C6E59
:10101800050E5B6E5B505C10D8A415EF08F017EF57
:1010280008F01EEF08F0000E556E000E546ED59EA7
:1010380092EF09F00B0E3318D8A425EF08F027EF2C
:1010480008F03BEF08F03650200FD96EDA6A300E00
:10105800DF6E3650C00F0D6E2A0E4AEC16F0364A77
:10106800372A000E5C6E050E5B6EC2EF07F00C0EA1
:101078003318D8A442EF08F044EF08F090EF09F0D5
:101088003650200FD96EDA6A310EDF6E3650C00F37
:101098000D6E2A0E4AEC16F033EF08F0000E266E9D
:1010A800000E256EC80E39EC15F02018D8A45FEF95
:1010B80008F061EF08F082EF08F0C90E39EC15F07E
:1010C8002118D8A46AEF08F06CEF08F082EF08F056
:1010D800CA0E39EC15F02218D8A475EF08F077EF8E
:1010E80008F082EF08F0CB0E39EC15F02318D8B4CD
:1010F80080EF08F082EF08F086EF08F0000E266E09
:10110800010E256E25042610D8A48DEF08F08FEF68
:1011180008F076EF09F034503510D8B496EF08F09F
:1011280098EF08F0E6EF08F0000E306E000E2F6E14
:101138002F4A302A500E2F5CC30E3058D8A0A7EF84
:1011480008F0A9EF08F09CEF08F0000E376E000ECB
:10115800366EFF0E3424346EFF0E3520356EC00E09
:101168000D6E3450310F4AEC16F0DA0E036E2F0E66
:10117800046EC10E056E52EC14F0000E2B6E000EBC
:101188002C6E000E2D6E000E2E6E010E2B26000EFC
:101198002C222D222E222E500BE1710E2C5C020ED9
:1011A8002D58D8A0DAEF08F0DCEF08F0C9EF08F006
:1011B800870E036E2F0E046EC00E056E52EC14F0EF
:1011C800C2EF07F027502810D8A4EDEF08F0EFEF92
:1011D80008F0F8EF08F0D58E000E5C6E780E5B6EA6
:1011E800000E286E010E276E980E036E2F0E046EE9
:1011F800800E056E52EC14F0F30E036E2F0E046E83
:10120800C00E056E52EC14F0C60E0D6E5BC001F0F8
:101218005CC002F0000E046E640E036EDEEC13F088
:101228000150300F4AEC16F0C70E0D6E000E046E1A
:101238000A0E036E5BC001F05CC002F0DEEC13F036
:1012480001C008F002C009F0000E0B6E0A0E0A6E0B
:10125800BAEC14F00850300F4AEC16F0C80E0D6EB8
:101268005BC008F05CC009F0000E0B6E0A0E0A6E37
:10127800BAEC14F00850300F4AEC16F0E90E036E81
:101288002F0E046EC90E056E52EC14F05B505C1004
:10129800D8A451EF09F053EF09F0C2EF07F0000EA0
:1012A800356E020E346E000E286E000E276E200E6C
:1012B800036E2F0E046E800E056E52EC14F0870E2E
:1012C800036E2F0E046EC00E056E52EC14F0000E65
:1012D8002A6E000E296ED59E000E376E000E366EF1
:1012E800C2EF07F0000E556E020E546E000E356EFA
:1012F800020E346E000E266E000E256E000E286E4D
:10130800000E276E000E2A6E000E296E000E326E39
:10131800000E316E92EF09F0C2EF07F0120019507B
:10132800800B266E195019242D6E18AE9EEF09F009
:10133800A0EF09F0A1EF09F02D802D50D8B4A7EF48
:1013480009F0A9EF09F0BDEF09F02D28D8A4AFEFF7
:1013580009F0B1EF09F0B9EF09F0000E166E000EB2
:10136800176E000E186E000E196E188E196AC5EFEA
:1013780009F0000E166E000E176E000E186E000EA5
:10138800196E1D50800B261A1D501D242E6E1CAE82
:10139800D0EF09F0D2EF09F0D3EF09F02E802E50EC
:1013A800D8B4D9EF09F0DBEF09F0EFEF09F02E28F8
:1013B800D8A4E1EF09F0E3EF09F0EBEF09F0000E34
:1013C8001A6E000E1B6E000E1C6E000E1D6E1C8E1B
:1013D8001D6AF7EF09F0000E1A6E000E1B6E000E64
:1013E8001C6E000E1D6E1A501B101C101D10D8A468
:1013F80000EF0AF002EF0AF01AEF0AF0000E166E7C
:10140800000E176E000E186E000E196E800E181260
:101418007F0E19122650191216C016F017C017F0B1
:1014280018C018F019C019F05AEF0BF02D50D8A4B5
:1014380020EF0AF022EF0AF02CEF0AF0000E166EE9
:10144800000E176E000E186E000E196E5AEF0BF094
:101458002E502DC01EF01F6A1E5E000E1F5A7F0EF2
:101468001E24276E000E1F20286E16C022F017C0FB
:1014780023F018C024F019C025F0000E166E000ED7
:10148800176E000E186E000E196E000E296E000EF3
:101498002A6E000E2B6E000E2C6E2E6A8CEF0AF050
:1014A8002E50D8B45AEF0AF05CEF0AF073EF0AF046
:1014B800D8902236233624362536D8901636173655
:1014C800183619362CAE6BEF0AF06DEF0AF06EEF96
:1014D8000AF01680D89029362A362B362C361A5020
:1014E800225C1B5023581C5024581D502558D8A046
:1014F80080EF0AF082EF0AF08BEF0AF02C8C1A507A
:10150800225E1B50235A1C50245A1D50255A2E2A3D
:10151800190E2E6492EF0AF094EF0AF054EF0AF0D5
:101528002250231024102510D8B49DEF0AF09FEF05
:101538000AF0B7EF0AF02980B7EF0AF0D89016360C
:101548001736183619362CAEACEF0AF0AEEF0AF0A3
:10155800AFEF0AF01680D89029362A362B362C366B
:101568002706D8A0280618AEBCEF0AF0BEEF0AF08E
:10157800A2EF0AF02E6A2CAEC4EF0AF0C6EF0AF00A
:10158800EAEF0AF0FF0E29141E6EFF0E2A141F6ED2
:10159800FF0E2B14206E7F0E2C14216E1E501F1070
:1015A80020102110D8B4DBEF0AF0DDEF0AF0E1EFEC
:1015B8000AF0010E2E6EEAEF0AF016A0E6EF0AF026
:1015C800E8EF0AF0EAEF0AF0DDEF0AF02E50D8B49F
:1015D800F0EF0AF0F2EF0AF016EF0BF0010E162604
:1015E800000E17221822192219A0FDEF0AF0FFEFAA
:1015F8000AF016EF0BF016C01EF017C01FF018C047
:1016080020F019C021F02134213220321F321E323D
:101618001EC016F01FC017F020C018F021C019F026
:10162800274A282A28BE21EF0BF0285008E127284E
:10163800D8A021EF0BF023EF0BF02EEF0BF0000EEC
:10164800286E2768000E166E000E176E000E186EB4
:10165800000E196E28BE3BEF0BF0285006E1270458
:10166800D8B039EF0BF03BEF0BF048EF0BF0000E62
:10167800286E000E276E000E166E000E176E000EF6
:10168800186E000E196E266A27C02DF02DA04FEF98
:101698000BF051EF0BF054EF0BF0188E55EF0BF0E9
:1016A800189ED8902D30196E0EEF0AF01200000E19
:1016B800016E010EC6EC15F021EE00F010EE60F0A0
:1016C800540EDBCFE3FFE806FCE2000E0001BC6F1E
:1016D800000EBB6F000EC36F000EC26F000EBF6F0F
:1016E800000EBE6F000EC16F000EC06F000EB66F09
:1016F800000EB56F000EB76F000EB86F000EB96F11
:10170800000EBA6F010EB727000EB823B923BA230B
:10171800BA510BE1710EB85D020EB959D8A097EF16
:101728000BF099EF0BF086EF0BF0000E18EC14F0AD
:101738000001BD6FBD5120EC10F00001C2B1A7EF50
:101748000BF0A9EF0BF0B3EF0BF0800E0D6E7E0ED1
:101758004AEC16F0C00E0D6E200E4AEC16F0810E03
:101768000D6E200E4AEC16F0C10E0D6E200E4AECDE
:1017780016F00001BB51110DF350600F206E20C010
:1017880003F0046A820E056E52EC14F00001BB519E
:10179800110DF3CF20F0110E20262050600F216E7E
:1017A80021C003F0046AC20E056E52EC14F00B0E51
:1017B8000001BD19D8A4E3EF0BF0E5EF0BF0FCEF47
:1017C8000BF0C04BC12B2D0EC05D010EC159D8A026
:1017D800F0EF0BF0F2EF0BF099EF0BF0000E556EF7
:1017E800030E546EB5C0CFF0B6C0D0F0A8EF0CF021
:1017F8002C0EC05D010EC159D8B005EF0CF007EFF3
:101808000CF045EF0CF0C051C111D8B40EEF0CF03C
:1018180010EF0CF045EF0CF0000EC16F000EC06F1A
:10182800C251C311D8B41BEF0CF01DEF0CF099EFA7
:101838000BF0C207D8A0C307C22908E1C329D8B44E
:1018480028EF0CF02AEF0CF099EF0BF0C2A12FEF64
:101858000CF031EF0CF040EF0CF0BB07D8A0BC0740
:10186800800E0D6E200E4AEC16F0C00E0D6E7E0E28
:101878004AEC16F099EF0BF0B507D8A0B60799EF28
:101888000BF00C0EBD19D8A44CEF0CF04EEF0CF079
:1018980061EF0CF0BE4BBF2B2D0EBE5D010EBF5984
:1018A800D8A059EF0CF05BEF0CF099EF0BF0000E9D
:1018B800556E000E546EA8EF0CF02C0EBE5D010E96
:1018C800BF59D8B06AEF0CF06CEF0CF099EF0BF041
:1018D800BE51BF11D8B473EF0CF075EF0CF099EF4F
:1018E8000BF0000EBF6F000EBE6FC35107E1070E6D
:1018F800C25DD8B082EF0CF084EF0CF099EF0BF0DA
:10190800C24BC32BC251C311D8B48DEF0CF08FEF6B
:101918000CF099EF0BF0C2B194EF0CF096EF0CF0CD
:101928009AEF0CF0BB4BBC2B99EF0BF0B54BB62BD9
:10193800800E0D6E200E4AEC16F0C00E0D6E7E0E57
:101948004AEC16F099EF0BF01200000E18EC14F0A8
:10195800116E0C0E1118D8A4B4EF0CF0B6EF0CF001
:10196800D2EF0CF00001C74BC82BC85109E11F0E7C
:10197800C75DD8A0C2EF0CF0C4EF0CF015EF0DF066
:10198800000E556E020E546E000E4F6E000E4E6E17
:10199800000EC86F000EC76F9EEF0DF00001C85112
:1019A80007E11E0EC75DD8B0DCEF0CF0DEEF0CF0DF
:1019B80000EF0DF0C751C811D8B4E5EF0CF0E7EF10
:1019C8000CF000EF0DF0000EC86F000EC76FFF0E91
:1019D80052240F6EFF0E5320106E0F504E5C1050A5
:1019E8004F58D8B0FAEF0CF0FCEF0CF015EF0DF0F3
:1019F8004E4A4F2A15EF0DF00B0E1118D8A407EF19
:101A08000DF009EF0DF015EF0DF04E504F10D8B452
:101A180010EF0DF012EF0DF015EF0DF04E06D8A0F7
:101A28004F06FC0E036E2E0E046E800E056E52ECF1
:101A380014F0C00E0D6E4E50300F4AEC16F0C10E69
:101A48000D6E200E4AEC16F0C20E0D6E4E500A0DA9
:101A5800F35039EC15F04AEC16F0C30E0D6E4E50EB
:101A68000A0DF32839EC15F04AEC16F0C40E0D6E89
:101A78003A0E4AEC16F0C50E0D6E4E500A0DF35094
:101A8800020F39EC15F04AEC16F0C60E0D6E4E50EA
:101A98000A0DF350030F39EC15F04AEC16F0C70E97
:101AA8000D6E3A0E4AEC16F0C80E0D6E4E500A0D29
:101AB800F350040F39EC15F04AEC16F0C90E0D6E10
:101AC8004E500A0DF350050F39EC15F04AEC16F09C
:101AD800CA0E0D6E200E4AEC16F0CB0E0D6E4E504F
:101AE8000A0DF350060F39EC15F04AEC16F0CC0E3F
:101AF8000D6E4E500A0DF350070F39EC15F04AECF5
:101B080016F0CD0E0D6E200E4AEC16F0CE0E0D6EB0
:101B18004E500A0DF350080F39EC15F04AEC16F048
:101B2800CF0E0D6E4E500A0DF350090F39EC15F01B
:101B38004AEC16F01200FEEC15F05CEC13F0AE0E59
:101B48001A6E470E1B6E250E1C6E410E1D6E040E7E
:101B580083EC15F001C008F002C009F00A6A0B6AAC
:101B6800000E94EC0EF008C016F009C017F00AC079
:101B780018F00BC019F093EC09F016C02FF017C03D
:101B880030F018C031F019C032F0EAEC11F02FC073
:101B980058F030C059F06EEC0FF05CEC13F0010E09
:101BA80018EC14F04D6EAE0E1A6E470E1B6E250E15
:101BB8001C6E410E1D6E040E83EC15F001C008F07A
:101BC80002C009F00A6A0B6A000E94EC0EF008C015
:101BD80016F009C017F00AC018F00BC019F093EC02
:101BE80009F016C02FF017C030F018C031F019C036
:101BF80032F0EAEC11F02FC058F030C059F04D50D7
:101C080020EC10F054505510D8A40DEF0EF00FEF43
:101C18000EF022EF0EF0C0EC12F00B0E4D18D8A407
:101C280018EF0EF01AEF0EF0D1EF0DF0000E556E12
:101C3800010E546ED1EF0DF0D1EF0DF0020E5418D5
:101C48005510D8A42AEF0EF02CEF0EF031EF0EF05D
:101C58004D505BEC0BF0D1EF0DF054045510D8A4A7
:101C680038EF0EF03AEF0EF03FEF0EF04D509DECCE
:101C780007F0D1EF0DF0030E54185510D8A447EF14
:101C88000EF049EF0EF0D1EF0DF00001CF51D01159
:101C9800D8A451EF0EF053EF0EF058EF0EF04D5060
:101CA800A9EC0CF0D1EF0DF0CF05D011D8A45FEF5F
:101CB8000EF061EF0EF065EF0EF0CCEC10F0D1EF06
:101CC8000DF0020ECF19D011D8A46DEF0EF06FEF02
:101CD8000EF074EF0EF04D5013EC13F0D1EF0DF041
:101CE800030ECF19D011D8A47CEF0EF07EEF0EF0C2
:101CF80083EF0EF04D5009EC00F0D1EF0DF0040E1B
:101D0800CF19D011D8A48BEF0EF08DEF0EF020EF85
:101D18000EF04D501BEC05F0D1EF0DF007EF00F081
:101D2800106E1050D8B49BEF0EF09DEF0EF0BFEF81
:101D38000EF00BBEA4EF0EF0A2EF0EF0BFEF0EF008
:101D480008C00CF009C00DF00AC00EF00BC00FF06F
:101D58000C1E0D1E0E1E0F1E0C2A000E0D220E222A
:101D68000F220CC012F00DC013F00EC014F00FC0FB
:101D780015F0C7EF0EF008C012F009C013F00AC042
:101D880014F00BC015F0085009100A100B10D8A455
:101D9800D0EF0EF0D2EF0EF0DCEF0EF0000E086E72
:101DA800000E096E000E0A6E000E0B6E6DEF0FF03E
:101DB800960E116EE6EF0EF0112AD89015321432F5
:101DC80013321232000E12140C6E000E13140D6E24
:101DD800000E14140E6EFE0E15140F6E0C500D101E
:101DE8000E100F10D8A4FBEF0EF0FDEF0EF0E0EF91
:101DF8000EF00BEF0FF0112A010E1226000E13221F
:101E080014221522D8901532143213321232000ED1
:101E180012140C6E000E13140D6E000E14140E6EB8
:101E2800FF0E15140F6E0C500D100E100F10D8A4C5
:101E380020EF0FF022EF0FF0FFEF0EF02AEF0FF078
:101E48001106D890123613361436153614BE2FEFF5
:101E58000FF031EF0FF039EF0FF0020E116037EF8E
:101E68000FF039EF0FF024EF0FF011B03EEF0FF045
:101E780040EF0FF041EF0FF0149ED890113211C0CF
:101E88000CF00D6A0E6A0F6A0CC00FF00E6A0D6A2C
:101E98000C6A0C5012120D5013120E5014120F50DF
:101EA80015121050D8B45BEF0FF05DEF0FF065EF2F
:101EB8000FF00BBE64EF0FF062EF0FF065EF0FF05D
:101EC800158E12C008F013C009F014C00AF015C02E
:101ED8000BF01200D1C00FF0D2C010F0D4C011F036
:101EE800D5C012F0D7C013F0D8C014F0030E5602B4
:101EF800F3CF0DF0F4CF0EF05702F3500E26550E27
:101F08000D24D96E010E0E20DA6EDF50156E030E09
:101F18005602F3CF0DF0F4CF0EF05702F3500E2611
:101F2800560E0D24D96E010E0E20DA6EDF50166E95
:101F380058C001F059C002F0000E046E0A0E036E7C
:101F4800DEEC13F00150300F176E58C008F059C07E
:101F580009F0000E0B6E0A0E0A6EBAEC14F0085067
:101F6800300F186E535009E10A0E525CD8A0BFEF2B
:101F78000FF0C1EF0FF0FDEF0FF0000E536E000EE3
:101F8800526E000E1A6E000E196E000E1C6E000EB8
:101F98001B6E52500A0DF3501B240A0F39EC15F032
:101FA800066E52500A0DF3501B24A6EC15F01B4A7E
:101FB8001C2A1CBEE9EF0FF01C5009E10A0E1B5C3D
:101FC800D8A0E9EF0FF0EBEF0FF0CDEF0FF0524A8A
:101FD800532A194A1A2A1ABEFBEF0FF01A5009E1C0
:101FE800090E195CD8A0FBEF0FF0FDEF0FF0C9EF59
:101FF8000FF0000E1E6E000E1D6E1D500F0FD96ED5
:10200800DA6ADF50066E52500A0DF3501D24A6EC12
:1020180015F01D4A1E2A1EBE1BEF10F01E5009E1C6
:102028000A0E1D5CD8A01BEF10F01DEF10F001EF99
:1020380010F0524A532A12001F6E020E1F18D8A41D
:1020480028EF10F02AEF10F062EF10F0575009E176
:10205800090E565CD8A033EF10F035EF10F039EFC9
:1020680010F050C056F051C057F056C050F057C04D
:1020780051F00001CB05CC11D8A445EF10F047EF83
:1020880010F051EF10F0000E576E020E566E000E53
:10209800CC6F000ECB6F5EEF10F0575007E1070EC4
:1020A800565CD8B05AEF10F05CEF10F05EEF10F00D
:1020B800564A572A6EEC0FF0CBEF10F0030E1F189C
:1020C800D8A469EF10F06BEF10F0A5EF10F057509F
:1020D80009E1090E565CD8A074EF10F076EF10F005
:1020E8007AEF10F050C056F051C057F056C050F07B
:1020F80057C051F00001CB05CC11D8A486EF10F0E1
:1021080088EF10F08AEF10F047EF10F0575009E110
:10211800020E565CD8A093EF10F095EF10F05EEF2A
:1021280010F0575007E1080E565CD8B09EEF10F03B
:10213800A0EF10F05EEF10F05606D8A057065EEF3D
:1021480010F01F04D8A4ABEF10F0ADEF10F0CBEFF8
:1021580010F0575009E1090E565CD8A0B6EF10F000
:10216800B8EF10F0BCEF10F050C056F051C057F067
:1021780056C050F057C051F0000E576E080E566EFC
:10218800000E0001CC6F010ECB6F5EEF10F0120055
:10219800575007E1090E565CD8B0D5EF10F0D7EFCD
:1021A80010F0DBEF10F056C050F057C051F0000EA1
:1021B800576E0A0E566E6EEC0FF0E90E026E2E0E7A
:1021C800036EE3EC15F0000E206E000E1F6E56EF46
:1021D80011F01F50300F3EEC16F0200E3EEC16F0BA
:1021E8001F500A0DF35039EC15F03EEC16F01F5055
:1021F8000A0DF32839EC15F03EEC16F03A0E3EECD9
:1022080016F01F500A0DF350020F39EC15F03EEC92
:1022180016F01F500A0DF350030F39EC15F03EEC81
:1022280016F03A0E3EEC16F01F500A0DF350040F4C
:1022380039EC15F03EEC16F01F500A0DF350050F5F
:1022480039EC15F03EEC16F0200E3EEC16F01F505F
:102258000A0DF350060F39EC15F03EEC16F01F503E
:102268000A0DF350070F39EC15F03EEC16F0200E6E
:102278003EEC16F01F500A0DF350080F39EC15F01C
:102288003EEC16F01F500A0DF350090F39EC15F00B
:102298003EEC16F0F90E026E2E0E036EE3EC15F00E
:1022A8001F4A202A52501F5C53502058D8A05FEF75
:1022B80011F061EF11F0EDEF10F0000E556E020E07
:1022C800546E1200819A818C818E81B26EEF11F06A
:1022D80070EF11F073EF11F0010EE9EF11F081B416
:1022E80078EF11F07AEF11F07DEF11F0040EE9EFBD
:1022F80011F081B682EF11F084EF11F087EF11F041
:10230800070EE9EF11F081B88CEF11F08EEF11F0A4
:1023180091EF11F00A0EE9EF11F0818A819C818E0C
:1023280081B299EF11F09BEF11F09EEF11F0020EC0
:10233800E9EF11F081B4A3EF11F0A5EF11F0A8EFC8
:1023480011F0050EE9EF11F081B6ADEF11F0AFEF26
:1023580011F0B2EF11F0080EE9EF11F081B8B7EF04
:1023680011F0B9EF11F0BCEF11F00B0EE9EF11F01D
:10237800818A818C819E819E81B2C5EF11F0C7EF61
:1023880011F0CAEF11F0030EE9EF11F081B4CFEFAD
:1023980011F0D1EF11F0D4EF11F0060EE9EF11F0C2
:1023A80081B6D9EF11F0DBEF11F0DEEF11F0090E75
:1023B800E9EF11F081B8E3EF11F0E5EF11F0E8EF84
:1023C80011F00C0EE9EF11F0FF0E12003134323427
:1023D800386E3850D8A4F3EF11F0F5EF11F0FFEF95
:1023E80011F0000E2F6E000E306E000E316E000ED2
:1023F800326E6CEF12F02FC033F030C034F031C0C1
:1024080035F032C036F0200E0FEF12F0D890363289
:10241800353234323332E82E0AEF12F03350376E49
:10242800318EFF0E2F16FF0E3016FF0E3116000EDE
:102438003216960E385E38BE26EF12F024EF12F0F0
:102448003CEF12F03850800A970FD8B02EEF12F0F8
:1024580030EF12F032EF12F0F5EF11F0D89032327F
:10246800313230322F32383E32EF12F054EF12F060
:102478001F0E386442EF12F044EF12F04CEF12F0E6
:10248800F5EF11F0D8902F3630363136323638061F
:102498003850D8A452EF12F054EF12F046EF12F071
:1024A8003750D8B45AEF12F05CEF12F064EF12F024
:1024B800321E311E301E2F6C000E30223122322285
:1024C8002FC02FF030C030F031C031F032C032F0C0
:1024D8001200956A9450F80B946E8290C30E036EA6
:1024E800CD0EE82EFED7032EFCD70000000E016E9D
:1024F800330EC6EC15F01B0E036E9E0EE82EFED7AB
:10250800032EFCD700D0000E016E330EC6EC15F07A
:10251800A60EE82EFED700D0000E016E330EC6ECD4
:1025280015F000D000D00000000E016E020EC6ECBF
:1025380015F0A60EE82EFED700D0000E016E380E5C
:10254800C6EC15F0A60EE82EFED700D0000E016EE0
:10255800010EC6EC15F0040E036E3E0EE82EFED7F3
:10256800032EFCD7000E016E0C0EC6EC15F0A60E5D
:10257800E82EFED700D01200A90E036E2F0E046EAF
:10258800800E056E52EC14F0D10E036E046AC00E74
:10259800056E52EC14F0950E036E2F0E046EC80EE5
:1025A800056E52EC14F0030E5602F3CF0FF0F4CF81
:1025B80010F05702F3501026550E0F24036E010E2B
:1025C8001020046ECA0E056E52EC14F0950E036EC0
:1025D8002F0E046ECC0E056E52EC14F0CE0E0D6E5E
:1025E80058C001F059C002F0000E046E0A0E036EC6
:1025F800DEEC13F00150300F4AEC16F0CF0E0D6EE2
:1026080058C008F059C009F0000E0B6E0A0E0A6E89
:10261800BAEC14F00850300F4AEC16F0120057507C
:1026280007E1090E565CD8B01CEF13F01EEF13F04B
:1026380022EF13F056C050F057C051F0BA0E036E97
:102648002F0E046E800E056E52EC14F0CA0E036E47
:102658002F0E046EC00E056E52EC14F0000E1F6EA5
:10266800000E206E000E216E000E226E010E1F2637
:10267800000E20222122222222500BE1710E205C22
:10268800020E2158D8A04BEF13F04DEF13F03AEF9C
:1026980013F0000E536E000E526E000E556E020EB1
:1026A800546E000E576E0B0E566E6EEC0FF0120045
:1026B800020E13EC15F00001C46F010E13EC15F0B7
:1026C8000001C56F000E13EC15F00001C66FC4AD14
:1026D80070EF13F072EF13F07DEF13F0C4390F0BA6
:1026E800010B300FD16FC4510F0B300FD26F86EF33
:1026F80013F0C4390F0B030B300FD16FC4510F0BFC
:10270800300FD26F3A0ED36FC5390F0B0F0B300F46
:10271800D46FC5510F0B300FD56F3A0ED66FC6392F
:102728000F0B0F0B300FD76FC6510F0B300FD86F31
:10273800D96B120056696577204C6F6720202020DE
:102748002020202000446F776E6C6F6164204C6FEE
:10275800672020202000436C656172204C6F672041
:10276800202020202020005365742054696D6520A6
:1027780020202020202020204368616E676520509B
:10278800617373776F726420204F4E004752004781
:102798004E00473100473200473300473400473581
:1027A800002D4300564C00444C00434C0053540049
:0327B8004350008B
:1027BC00000E066E000E056E03500410D8B4E9EF3F
:1027CC0013F0EBEF13F013EF14F0010E076EF3EFB1
:1027DC0013F0D89003360436072A04AEF8EF13F042
:1027EC00FAEF13F0EFEF13F0D890053606360350DE
:1027FC00015C04500258D8A006EF14F008EF14F056
:10280C000DEF14F00350015E0450025A0580D8906D
:10281C0004320332072EFAEF13F005C001F006C0A4
:10282C0002F01200016E0104D8A41FEF14F021EF86
:10283C0014F044EF14F066EC11F05A6E5A28D8B428
:10284C002AEF14F02CEF14F038EF14F05D50D8B4DC
:10285C0032EF14F034EF14F038EF14F05D6A5A5084
:10286C0051EF14F05A28D8A43EEF14F040EF14F0B6
:10287C0050EF14F0010E5D6E50EF14F00150D8A41F
:10288C004AEF14F04CEF14F050EF14F066EC11F02A
:10289C0051EF14F0FF0E1200000E016E0550C6EC45
:1028AC0015F06FEF14F0010E016E03C0F6FF04C0BB
:1028BC00F7FFF86A050EF76403D00800F55005D051
:1028CC00F6CFE1FFF7CFE2FFE750C6EC15F0034A75
:1028DC00042A03C0F6FF04C0F7FFF86A050EF7647C
:1028EC0003D00800F55005D0F6CFE1FFF7CFE2FF9B
:1028FC00E7500009D8A485EF14F087EF14F059EFD6
:10290C0014F012003C0EF66E270EF76E000EF86EE9
:10291C0001EE00F010EE7FF00900F5CFEEFFE55070
:10292C00E150FAE1360EF66E2D0EF76E000EF86ED3
:10293C000900F5CF5BF00900F5CF5CF00900F5CF8D
:10294C005DF000EEC4F0160EEE6AE806FDE100EE56
:10295C004EF00D0EEE6AE806FDE15E905E92000E02
:10296C00F86E00019FEF0DF00A500B10D8B4C1EFB8
:10297C0014F0C3EF14F0E7EF14F0010E0C6ECBEF74
:10298C0014F0D8900A360B360C2A0BAED0EF14F09C
:10299C00D2EF14F0C7EF14F00A50085C0B50095832
:1029AC00D8A0DBEF14F0DDEF14F0E1EF14F00A50D7
:1029BC00085E0B50095AD8900B320A320C2ED2EF0B
:1029CC0014F008C008F009C009F012000600F2A4C7
:1029DC00F2EF14F0F4EF14F011EF15F0080ED6240A
:1029EC00D66E000ED720D76E0001C94BCA2B210E14
:1029FC00C91907E14E0ECA19D8A407EF15F009EF53
:102A0C0015F010EF15F0000ECA6F000EC96F5B06C3
:102A1C00D8A05C06F2945E921100046E8CEC16F059
:102A2C00D00E7CEC16F004507CEC16F090EC16F00A
:102A3C00D10E7CEC16F082EC16F0056E88EC16F0DC
:102A4C000B0E036EB80E026E0206D8A00306022807
:102A5C0006E10328D8A435EF15F037EF15F02AEF6F
:102A6C0015F005501200046E8CEC16F0A00E7CECE8
:102A7C0016F004507CEC16F090EC16F0A10E7CECE9
:102A8C0016F082EC16F0056E88EC16F00B0E036E49
:102A9C00B80E026E0206D8A00306022806E103282F
:102AAC00D8A45BEF15F05DEF15F050EF15F0055065
:102ABC001200000E13EC15F0066E06508009026E23
:102ACC00000E21EC16F0020E13EC15F0066E0650FB
:102ADC00BF0B026E020E21EC16F0930E026E070E67
:102AEC0021EC16F0000E13EC15F0066E06507F0B61
:102AFC00026E000E21EC16F01200076E07C003F0F8
:102B0C00D8900336D8900336C250C30B0310C26E54
:102B1C00C282C2B294EF15F096EF15F08FEF15F05C
:102B2C00C350C4CF03F0046A03C004F0036A03105B
:102B3C00056E0450066E05C001F006C002F01200CE
:102B4C00096E8CEC16F0A00E7CEC16F009507CECA7
:102B5C0016F006507CEC16F088EC16F00B0E086E96
:102B6C00B80E076E0706D8A00806072806E1082845
:102B7C00D8A4C3EF15F0C5EF15F0B8EF15F012009F
:102B8C00026E01B0CCEF15F0CFEF15F08282D0EFD2
:102B9C0015F0829202C083FF82848294958E82808B
:102BAC0082928284829483BEDEEF15F0E0EF15F002
:102BBC00D7EF15F08290959E1200EFEF15F002C042
:102BCC00F6FF03C0F7FF0800F5503EEC16F0024A82
:102BDC00032A02C0F6FF03C0F7FF0800F5500009F6
:102BEC00D8A4FBEF15F0FDEF15F0E5EF15F0120092
:102BFC006DEC12F061EC16F05FEC15F030EC16F0A9
:102C0C0075EC16F011EC16F0F28C0F0EC16E56EC42
:102C1C0016F0F28E1200948E949CAC9CAC8AAC98FC
:102C2C00AC96AC84AB8EAB9CAB88B896810EAF6E79
:102C3C009E989E9A1200036E8CEC16F0D00E7CECD3
:102C4C0016F003507CEC16F002507CEC16F088EC7D
:102C5C0016F01200C08EC08AC098C096C090C08278
:102C6C00C094C292C19AC198C46AC36AC28012004D
:102C7C00016E9EA844EF16F046EF16F03FEF16F0EB
:102C8C009E9801C0ADFF12000E6E000E016E0D502D
:102C9C00C6EC15F0010E016E0E50C6EC15F01200CC
:102CAC00D58CD59AD59ED586000ED76E060ED66ECF
:102CBC00F294F28A120094869488280EC66E310E15
:102CCC00C86EC79CC78E9E96A19612009EA671EFE9
:102CDC0016F073EF16F06CEF16F09E9612001E0EA7
:102CEC00936EF19E8150E009816E1200016E01C05D
:102CFC00C9FF6CEC16F0120094EC16F098EC16F080
:102D0C00C9501200C5846CEC16F01200C5806CEC36
:102D1C0016F01200C5826CEC16F01200C5866CEC35
:0D2D2C0016F01200C58AC58812007800015B
:102ED40000496E636F7272656374207061737377F7
:102EE4006F72642000232054696D65202020202007
:102EF40045562053500A0D00232054494D452020A7
:102F04002020204556205350200020205375636311
:102F140065737366756C6C792020200020456E748F
:102F240065722050617373776F72642020002020D3
:102F340020205365742054696D65202020200045AD
:102F44006E746572204E6577205057202020200033
:102F5400526520456E746572204E65772050572067
:102F640000456E746572204F6C6420506173776FF6
:102F740064004368616E6765642070617373776F82
:102F840072640020202020202020202020202020C7
:102F940020202000594F552041524520424C4F4398
:102FA4004B45442000202054494D452020202045F5
:102FB4005620205350002020436C656172656420C4
:102FC4004C6F67202000202053756363657373661C
:102FD400756C6C79200020617474656D7074732055
:102FE4006C65667400202053454353202020002044
:0B2FF400464F52202000203A20000031
:020000040020DA
:08000000FFFFFFFFFFFFFFFF00
:020000040030CA
:0E000000FF071F1FFF8285FF0FC00FE00F409C
:00000001FF
